{
  "contractName": "Event",
  "abi": [
    {
      "anonymous": false,
      "inputs": [
        {
          "indexed": false,
          "internalType": "bytes32",
          "name": "_checksum",
          "type": "bytes32"
        },
        {
          "indexed": false,
          "internalType": "string",
          "name": "data",
          "type": "string"
        },
        {
          "indexed": false,
          "internalType": "string",
          "name": "eventDetails",
          "type": "string"
        },
        {
          "indexed": true,
          "internalType": "address",
          "name": "_setBy",
          "type": "address"
        }
      ],
      "name": "NewEntry",
      "type": "event"
    },
    {
      "constant": true,
      "inputs": [
        {
          "internalType": "bytes32",
          "name": "",
          "type": "bytes32"
        }
      ],
      "name": "myMapping",
      "outputs": [
        {
          "internalType": "string",
          "name": "data",
          "type": "string"
        },
        {
          "internalType": "string",
          "name": "eventDetails",
          "type": "string"
        },
        {
          "internalType": "uint256",
          "name": "timestamp",
          "type": "uint256"
        },
        {
          "internalType": "bytes32",
          "name": "checkSum",
          "type": "bytes32"
        },
        {
          "internalType": "bool",
          "name": "isSet",
          "type": "bool"
        },
        {
          "internalType": "address",
          "name": "setBy",
          "type": "address"
        }
      ],
      "payable": false,
      "stateMutability": "view",
      "type": "function"
    },
    {
      "constant": false,
      "inputs": [
        {
          "internalType": "bytes32",
          "name": "_checksum",
          "type": "bytes32"
        },
        {
          "internalType": "string",
          "name": "_data",
          "type": "string"
        },
        {
          "internalType": "string",
          "name": "_eventDetails",
          "type": "string"
        }
      ],
      "name": "createEvent",
      "outputs": [],
      "payable": false,
      "stateMutability": "nonpayable",
      "type": "function"
    },
    {
      "constant": true,
      "inputs": [
        {
          "internalType": "bytes32",
          "name": "_checksum",
          "type": "bytes32"
        }
      ],
      "name": "getEvent",
      "outputs": [
        {
          "internalType": "string",
          "name": "",
          "type": "string"
        },
        {
          "internalType": "string",
          "name": "",
          "type": "string"
        },
        {
          "internalType": "uint256",
          "name": "",
          "type": "uint256"
        },
        {
          "internalType": "address",
          "name": "",
          "type": "address"
        }
      ],
      "payable": false,
      "stateMutability": "view",
      "type": "function"
    }
  ],
  "bytecode": "0x608060405234801561001057600080fd5b50610ace806100206000396000f3fe608060405234801561001057600080fd5b50600436106100415760003560e01c80638c172fa214610046578063b018608814610193578063bba8b630146102ef575b600080fd5b6100726004803603602081101561005c57600080fd5b810190808035906020019092919050505061044e565b6040518080602001806020018581526020018473ffffffffffffffffffffffffffffffffffffffff1673ffffffffffffffffffffffffffffffffffffffff168152602001838103835287818151815260200191508051906020019080838360005b838110156100ee5780820151818401526020810190506100d3565b50505050905090810190601f16801561011b5780820380516001836020036101000a031916815260200191505b50838103825286818151815260200191508051906020019080838360005b83811015610154578082015181840152602081019050610139565b50505050905090810190601f1680156101815780820380516001836020036101000a031916815260200191505b50965050505050505060405180910390f35b6102ed600480360360608110156101a957600080fd5b8101908080359060200190929190803590602001906401000000008111156101d057600080fd5b8201836020820111156101e257600080fd5b8035906020019184600183028401116401000000008311171561020457600080fd5b91908080601f016020809104026020016040519081016040528093929190818152602001838380828437600081840152601f19601f8201169050808301925050505050505091929192908035906020019064010000000081111561026757600080fd5b82018360208201111561027957600080fd5b8035906020019184600183028401116401000000008311171561029b57600080fd5b91908080601f016020809104026020016040519081016040528093929190818152602001838380828437600081840152601f19601f820116905080830192505050505050509192919290505050610611565b005b61031b6004803603602081101561030557600080fd5b810190808035906020019092919050505061085b565b604051808060200180602001878152602001868152602001851515151581526020018473ffffffffffffffffffffffffffffffffffffffff1673ffffffffffffffffffffffffffffffffffffffff168152602001838103835289818151815260200191508051906020019080838360005b838110156103a757808201518184015260208101905061038c565b50505050905090810190601f1680156103d45780820380516001836020036101000a031916815260200191505b50838103825288818151815260200191508051906020019080838360005b8381101561040d5780820151818401526020810190506103f2565b50505050905090810190601f16801561043a5780820380516001836020036101000a031916815260200191505b509850505050505050505060405180910390f35b6060806000806000808681526020019081526020016000206000016000808781526020019081526020016000206001016000808881526020019081526020016000206002015460008089815260200190815260200160002060040160019054906101000a900473ffffffffffffffffffffffffffffffffffffffff16838054600181600116156101000203166002900480601f01602080910402602001604051908101604052809291908181526020018280546001816001161561010002031660029004801561055f5780601f106105345761010080835404028352916020019161055f565b820191906000526020600020905b81548152906001019060200180831161054257829003601f168201915b50505050509350828054600181600116156101000203166002900480601f0160208091040260200160405190810160405280929190818152602001828054600181600116156101000203166002900480156105fb5780601f106105d0576101008083540402835291602001916105fb565b820191906000526020600020905b8154815290600101906020018083116105de57829003601f168201915b5050505050925093509350935093509193509193565b60008084815260200190815260200160002060040160009054906101000a900460ff161561063e57600080fd5b600160008085815260200190815260200160002060040160006101000a81548160ff0219169083151502179055508160008085815260200190815260200160002060000190805190602001906106959291906109f4565b508060008085815260200190815260200160002060010190805190602001906106bf9291906109f4565b5042600080858152602001908152602001600020600201819055503360008085815260200190815260200160002060040160016101000a81548173ffffffffffffffffffffffffffffffffffffffff021916908373ffffffffffffffffffffffffffffffffffffffff1602179055503373ffffffffffffffffffffffffffffffffffffffff167f2820b2c1cf51c9da49ce7408325a347f38970532885890fce873f7f87d6f96e3848484604051808481526020018060200180602001838103835285818151815260200191508051906020019080838360005b838110156107b3578082015181840152602081019050610798565b50505050905090810190601f1680156107e05780820380516001836020036101000a031916815260200191505b50838103825284818151815260200191508051906020019080838360005b838110156108195780820151818401526020810190506107fe565b50505050905090810190601f1680156108465780820380516001836020036101000a031916815260200191505b509550505050505060405180910390a2505050565b6000602052806000526040600020600091509050806000018054600181600116156101000203166002900480601f0160208091040260200160405190810160405280929190818152602001828054600181600116156101000203166002900480156109075780601f106108dc57610100808354040283529160200191610907565b820191906000526020600020905b8154815290600101906020018083116108ea57829003601f168201915b505050505090806001018054600181600116156101000203166002900480601f0160208091040260200160405190810160405280929190818152602001828054600181600116156101000203166002900480156109a55780601f1061097a576101008083540402835291602001916109a5565b820191906000526020600020905b81548152906001019060200180831161098857829003601f168201915b5050505050908060020154908060030154908060040160009054906101000a900460ff16908060040160019054906101000a900473ffffffffffffffffffffffffffffffffffffffff16905086565b828054600181600116156101000203166002900490600052602060002090601f016020900481019282601f10610a3557805160ff1916838001178555610a63565b82800160010185558215610a63579182015b82811115610a62578251825591602001919060010190610a47565b5b509050610a709190610a74565b5090565b610a9691905b80821115610a92576000816000905550600101610a7a565b5090565b9056fea265627a7a72315820ba9267f6f6860f7e178c93f070dacb7e60d744226b3e8c8336b7664c8163c9eb64736f6c63430005100032",
  "source": "pragma solidity >0.5.0;\n\ncontract Event {\n    struct MyEventEntry {\n        string data;\n        string eventDetails;\n        uint256 timestamp;\n        bytes32 checkSum;\n        bool isSet;\n        address setBy;\n    }\n\n    mapping(bytes32 => MyEventEntry) public myMapping;\n\n    event NewEntry(\n        bytes32 _checksum,\n        string data,\n        string eventDetails,\n        address indexed _setBy\n    );\n\n    function createEvent(\n        bytes32 _checksum,\n        string memory _data,\n        string memory _eventDetails\n    ) public {\n        require(!myMapping[_checksum].isSet);\n\n        myMapping[_checksum].isSet = true;\n        myMapping[_checksum].data = _data;\n        myMapping[_checksum].eventDetails = _eventDetails;\n        myMapping[_checksum].timestamp = block.timestamp;\n        myMapping[_checksum].setBy = msg.sender;\n\n        emit NewEntry(\n            _checksum,\n            _data,\n            _eventDetails,\n            msg.sender\n        );\n    }\n\n    function getEvent(bytes32 _checksum)\n        public\n        view\n        returns (\n            string memory,\n            string memory,\n            uint256,\n            address\n        )\n    {\n        // require(myMapping[_checksum].isSet);\n\n        return (\n            myMapping[_checksum].data,\n            myMapping[_checksum].eventDetails,\n            myMapping[_checksum].timestamp,\n            myMapping[_checksum].setBy\n        );\n    }\n}",
  "sourcePath": "/home/geov/Public/IT-MARATHON/blockchain/contracts/Event.sol",
  "compiler": {
    "name": "solc",
    "version": "0.5.16+commit.9c3226ce.Emscripten.clang"
  },
  "schemaVersion": "3.3.4",
  "updatedAt": "2021-05-22T13:38:41.714Z",
  "networkType": "ethereum",
  "devdoc": {
    "methods": {}
  },
  "userdoc": {
    "methods": {}
  }
}